{
  "_format": "hh-sol-artifact-1",
  "contractName": "HospitalToken",
  "sourceName": "contracts/HospitalToken.sol",
  "abi": [
    {
      "inputs": [
        {
          "internalType": "string",
          "name": "name_",
          "type": "string"
        },
        {
          "internalType": "string",
          "name": "symbol_",
          "type": "string"
        },
        {
          "internalType": "address",
          "name": "admin",
          "type": "address"
        },
        {
          "internalType": "address",
          "name": "initialRecipient",
          "type": "address"
        },
        {
          "internalType": "uint256",
          "name": "initialSupply",
          "type": "uint256"
        },
        {
          "internalType": "uint256",
          "name": "maxSupply",
          "type": "uint256"
        }
      ],
      "stateMutability": "nonpayable",
      "type": "constructor"
    },
    {
      "inputs": [],
      "name": "AccessControlBadConfirmation",
      "type": "error"
    },
    {
      "inputs": [
        {
          "internalType": "address",
          "name": "account",
          "type": "address"
        },
        {
          "internalType": "bytes32",
          "name": "neededRole",
          "type": "bytes32"
        }
      ],
      "name": "AccessControlUnauthorizedAccount",
      "type": "error"
    },
    {
      "inputs": [],
      "name": "ECDSAInvalidSignature",
      "type": "error"
    },
    {
      "inputs": [
        {
          "internalType": "uint256",
          "name": "length",
          "type": "uint256"
        }
      ],
      "name": "ECDSAInvalidSignatureLength",
      "type": "error"
    },
    {
      "inputs": [
        {
          "internalType": "bytes32",
          "name": "s",
          "type": "bytes32"
        }
      ],
      "name": "ECDSAInvalidSignatureS",
      "type": "error"
    },
    {
      "inputs": [
        {
          "internalType": "uint256",
          "name": "increasedSupply",
          "type": "uint256"
        },
        {
          "internalType": "uint256",
          "name": "cap",
          "type": "uint256"
        }
      ],
      "name": "ERC20ExceededCap",
      "type": "error"
    },
    {
      "inputs": [
        {
          "internalType": "address",
          "name": "spender",
          "type": "address"
        },
        {
          "internalType": "uint256",
          "name": "allowance",
          "type": "uint256"
        },
        {
          "internalType": "uint256",
          "name": "needed",
          "type": "uint256"
        }
      ],
      "name": "ERC20InsufficientAllowance",
      "type": "error"
    },
    {
      "inputs": [
        {
          "internalType": "address",
          "name": "sender",
          "type": "address"
        },
        {
          "internalType": "uint256",
          "name": "balance",
          "type": "uint256"
        },
        {
          "internalType": "uint256",
          "name": "needed",
          "type": "uint256"
        }
      ],
      "name": "ERC20InsufficientBalance",
      "type": "error"
    },
    {
      "inputs": [
        {
          "internalType": "address",
          "name": "approver",
          "type": "address"
        }
      ],
      "name": "ERC20InvalidApprover",
      "type": "error"
    },
    {
      "inputs": [
        {
          "internalType": "uint256",
          "name": "cap",
          "type": "uint256"
        }
      ],
      "name": "ERC20InvalidCap",
      "type": "error"
    },
    {
      "inputs": [
        {
          "internalType": "address",
          "name": "receiver",
          "type": "address"
        }
      ],
      "name": "ERC20InvalidReceiver",
      "type": "error"
    },
    {
      "inputs": [
        {
          "internalType": "address",
          "name": "sender",
          "type": "address"
        }
      ],
      "name": "ERC20InvalidSender",
      "type": "error"
    },
    {
      "inputs": [
        {
          "internalType": "address",
          "name": "spender",
          "type": "address"
        }
      ],
      "name": "ERC20InvalidSpender",
      "type": "error"
    },
    {
      "inputs": [
        {
          "internalType": "uint256",
          "name": "deadline",
          "type": "uint256"
        }
      ],
      "name": "ERC2612ExpiredSignature",
      "type": "error"
    },
    {
      "inputs": [
        {
          "internalType": "address",
          "name": "signer",
          "type": "address"
        },
        {
          "internalType": "address",
          "name": "owner",
          "type": "address"
        }
      ],
      "name": "ERC2612InvalidSigner",
      "type": "error"
    },
    {
      "inputs": [],
      "name": "EnforcedPause",
      "type": "error"
    },
    {
      "inputs": [],
      "name": "ExpectedPause",
      "type": "error"
    },
    {
      "inputs": [
        {
          "internalType": "address",
          "name": "account",
          "type": "address"
        },
        {
          "internalType": "uint256",
          "name": "currentNonce",
          "type": "uint256"
        }
      ],
      "name": "InvalidAccountNonce",
      "type": "error"
    },
    {
      "inputs": [],
      "name": "InvalidCap",
      "type": "error"
    },
    {
      "inputs": [],
      "name": "InvalidShortString",
      "type": "error"
    },
    {
      "inputs": [
        {
          "internalType": "string",
          "name": "str",
          "type": "string"
        }
      ],
      "name": "StringTooLong",
      "type": "error"
    },
    {
      "inputs": [],
      "name": "ZeroAddress",
      "type": "error"
    },
    {
      "anonymous": false,
      "inputs": [
        {
          "indexed": true,
          "internalType": "address",
          "name": "owner",
          "type": "address"
        },
        {
          "indexed": true,
          "internalType": "address",
          "name": "spender",
          "type": "address"
        },
        {
          "indexed": false,
          "internalType": "uint256",
          "name": "value",
          "type": "uint256"
        }
      ],
      "name": "Approval",
      "type": "event"
    },
    {
      "anonymous": false,
      "inputs": [],
      "name": "EIP712DomainChanged",
      "type": "event"
    },
    {
      "anonymous": false,
      "inputs": [
        {
          "indexed": false,
          "internalType": "address",
          "name": "account",
          "type": "address"
        }
      ],
      "name": "Paused",
      "type": "event"
    },
    {
      "anonymous": false,
      "inputs": [
        {
          "indexed": true,
          "internalType": "bytes32",
          "name": "role",
          "type": "bytes32"
        },
        {
          "indexed": true,
          "internalType": "bytes32",
          "name": "previousAdminRole",
          "type": "bytes32"
        },
        {
          "indexed": true,
          "internalType": "bytes32",
          "name": "newAdminRole",
          "type": "bytes32"
        }
      ],
      "name": "RoleAdminChanged",
      "type": "event"
    },
    {
      "anonymous": false,
      "inputs": [
        {
          "indexed": true,
          "internalType": "bytes32",
          "name": "role",
          "type": "bytes32"
        },
        {
          "indexed": true,
          "internalType": "address",
          "name": "account",
          "type": "address"
        },
        {
          "indexed": true,
          "internalType": "address",
          "name": "sender",
          "type": "address"
        }
      ],
      "name": "RoleGranted",
      "type": "event"
    },
    {
      "anonymous": false,
      "inputs": [
        {
          "indexed": true,
          "internalType": "bytes32",
          "name": "role",
          "type": "bytes32"
        },
        {
          "indexed": true,
          "internalType": "address",
          "name": "account",
          "type": "address"
        },
        {
          "indexed": true,
          "internalType": "address",
          "name": "sender",
          "type": "address"
        }
      ],
      "name": "RoleRevoked",
      "type": "event"
    },
    {
      "anonymous": false,
      "inputs": [
        {
          "indexed": true,
          "internalType": "address",
          "name": "from",
          "type": "address"
        },
        {
          "indexed": true,
          "internalType": "address",
          "name": "to",
          "type": "address"
        },
        {
          "indexed": false,
          "internalType": "uint256",
          "name": "value",
          "type": "uint256"
        }
      ],
      "name": "Transfer",
      "type": "event"
    },
    {
      "anonymous": false,
      "inputs": [
        {
          "indexed": false,
          "internalType": "address",
          "name": "account",
          "type": "address"
        }
      ],
      "name": "Unpaused",
      "type": "event"
    },
    {
      "inputs": [],
      "name": "DEFAULT_ADMIN_ROLE",
      "outputs": [
        {
          "internalType": "bytes32",
          "name": "",
          "type": "bytes32"
        }
      ],
      "stateMutability": "view",
      "type": "function"
    },
    {
      "inputs": [],
      "name": "DOMAIN_SEPARATOR",
      "outputs": [
        {
          "internalType": "bytes32",
          "name": "",
          "type": "bytes32"
        }
      ],
      "stateMutability": "view",
      "type": "function"
    },
    {
      "inputs": [],
      "name": "MINTER_ROLE",
      "outputs": [
        {
          "internalType": "bytes32",
          "name": "",
          "type": "bytes32"
        }
      ],
      "stateMutability": "view",
      "type": "function"
    },
    {
      "inputs": [],
      "name": "PAUSER_ROLE",
      "outputs": [
        {
          "internalType": "bytes32",
          "name": "",
          "type": "bytes32"
        }
      ],
      "stateMutability": "view",
      "type": "function"
    },
    {
      "inputs": [
        {
          "internalType": "address",
          "name": "owner",
          "type": "address"
        },
        {
          "internalType": "address",
          "name": "spender",
          "type": "address"
        }
      ],
      "name": "allowance",
      "outputs": [
        {
          "internalType": "uint256",
          "name": "",
          "type": "uint256"
        }
      ],
      "stateMutability": "view",
      "type": "function"
    },
    {
      "inputs": [
        {
          "internalType": "address",
          "name": "spender",
          "type": "address"
        },
        {
          "internalType": "uint256",
          "name": "value",
          "type": "uint256"
        }
      ],
      "name": "approve",
      "outputs": [
        {
          "internalType": "bool",
          "name": "",
          "type": "bool"
        }
      ],
      "stateMutability": "nonpayable",
      "type": "function"
    },
    {
      "inputs": [
        {
          "internalType": "address",
          "name": "account",
          "type": "address"
        }
      ],
      "name": "balanceOf",
      "outputs": [
        {
          "internalType": "uint256",
          "name": "",
          "type": "uint256"
        }
      ],
      "stateMutability": "view",
      "type": "function"
    },
    {
      "inputs": [
        {
          "internalType": "uint256",
          "name": "value",
          "type": "uint256"
        }
      ],
      "name": "burn",
      "outputs": [],
      "stateMutability": "nonpayable",
      "type": "function"
    },
    {
      "inputs": [
        {
          "internalType": "address",
          "name": "account",
          "type": "address"
        },
        {
          "internalType": "uint256",
          "name": "value",
          "type": "uint256"
        }
      ],
      "name": "burnFrom",
      "outputs": [],
      "stateMutability": "nonpayable",
      "type": "function"
    },
    {
      "inputs": [],
      "name": "cap",
      "outputs": [
        {
          "internalType": "uint256",
          "name": "",
          "type": "uint256"
        }
      ],
      "stateMutability": "view",
      "type": "function"
    },
    {
      "inputs": [],
      "name": "decimals",
      "outputs": [
        {
          "internalType": "uint8",
          "name": "",
          "type": "uint8"
        }
      ],
      "stateMutability": "view",
      "type": "function"
    },
    {
      "inputs": [],
      "name": "eip712Domain",
      "outputs": [
        {
          "internalType": "bytes1",
          "name": "fields",
          "type": "bytes1"
        },
        {
          "internalType": "string",
          "name": "name",
          "type": "string"
        },
        {
          "internalType": "string",
          "name": "version",
          "type": "string"
        },
        {
          "internalType": "uint256",
          "name": "chainId",
          "type": "uint256"
        },
        {
          "internalType": "address",
          "name": "verifyingContract",
          "type": "address"
        },
        {
          "internalType": "bytes32",
          "name": "salt",
          "type": "bytes32"
        },
        {
          "internalType": "uint256[]",
          "name": "extensions",
          "type": "uint256[]"
        }
      ],
      "stateMutability": "view",
      "type": "function"
    },
    {
      "inputs": [
        {
          "internalType": "bytes32",
          "name": "role",
          "type": "bytes32"
        }
      ],
      "name": "getRoleAdmin",
      "outputs": [
        {
          "internalType": "bytes32",
          "name": "",
          "type": "bytes32"
        }
      ],
      "stateMutability": "view",
      "type": "function"
    },
    {
      "inputs": [
        {
          "internalType": "bytes32",
          "name": "role",
          "type": "bytes32"
        },
        {
          "internalType": "address",
          "name": "account",
          "type": "address"
        }
      ],
      "name": "grantRole",
      "outputs": [],
      "stateMutability": "nonpayable",
      "type": "function"
    },
    {
      "inputs": [
        {
          "internalType": "bytes32",
          "name": "role",
          "type": "bytes32"
        },
        {
          "internalType": "address",
          "name": "account",
          "type": "address"
        }
      ],
      "name": "hasRole",
      "outputs": [
        {
          "internalType": "bool",
          "name": "",
          "type": "bool"
        }
      ],
      "stateMutability": "view",
      "type": "function"
    },
    {
      "inputs": [
        {
          "internalType": "address",
          "name": "to",
          "type": "address"
        },
        {
          "internalType": "uint256",
          "name": "amount",
          "type": "uint256"
        }
      ],
      "name": "mint",
      "outputs": [],
      "stateMutability": "nonpayable",
      "type": "function"
    },
    {
      "inputs": [],
      "name": "name",
      "outputs": [
        {
          "internalType": "string",
          "name": "",
          "type": "string"
        }
      ],
      "stateMutability": "view",
      "type": "function"
    },
    {
      "inputs": [
        {
          "internalType": "address",
          "name": "owner",
          "type": "address"
        }
      ],
      "name": "nonces",
      "outputs": [
        {
          "internalType": "uint256",
          "name": "",
          "type": "uint256"
        }
      ],
      "stateMutability": "view",
      "type": "function"
    },
    {
      "inputs": [],
      "name": "pause",
      "outputs": [],
      "stateMutability": "nonpayable",
      "type": "function"
    },
    {
      "inputs": [],
      "name": "paused",
      "outputs": [
        {
          "internalType": "bool",
          "name": "",
          "type": "bool"
        }
      ],
      "stateMutability": "view",
      "type": "function"
    },
    {
      "inputs": [
        {
          "internalType": "address",
          "name": "owner",
          "type": "address"
        },
        {
          "internalType": "address",
          "name": "spender",
          "type": "address"
        },
        {
          "internalType": "uint256",
          "name": "value",
          "type": "uint256"
        },
        {
          "internalType": "uint256",
          "name": "deadline",
          "type": "uint256"
        },
        {
          "internalType": "uint8",
          "name": "v",
          "type": "uint8"
        },
        {
          "internalType": "bytes32",
          "name": "r",
          "type": "bytes32"
        },
        {
          "internalType": "bytes32",
          "name": "s",
          "type": "bytes32"
        }
      ],
      "name": "permit",
      "outputs": [],
      "stateMutability": "nonpayable",
      "type": "function"
    },
    {
      "inputs": [
        {
          "internalType": "bytes32",
          "name": "role",
          "type": "bytes32"
        },
        {
          "internalType": "address",
          "name": "callerConfirmation",
          "type": "address"
        }
      ],
      "name": "renounceRole",
      "outputs": [],
      "stateMutability": "nonpayable",
      "type": "function"
    },
    {
      "inputs": [
        {
          "internalType": "bytes32",
          "name": "role",
          "type": "bytes32"
        },
        {
          "internalType": "address",
          "name": "account",
          "type": "address"
        }
      ],
      "name": "revokeRole",
      "outputs": [],
      "stateMutability": "nonpayable",
      "type": "function"
    },
    {
      "inputs": [
        {
          "internalType": "bytes4",
          "name": "interfaceId",
          "type": "bytes4"
        }
      ],
      "name": "supportsInterface",
      "outputs": [
        {
          "internalType": "bool",
          "name": "",
          "type": "bool"
        }
      ],
      "stateMutability": "view",
      "type": "function"
    },
    {
      "inputs": [],
      "name": "symbol",
      "outputs": [
        {
          "internalType": "string",
          "name": "",
          "type": "string"
        }
      ],
      "stateMutability": "view",
      "type": "function"
    },
    {
      "inputs": [],
      "name": "totalSupply",
      "outputs": [
        {
          "internalType": "uint256",
          "name": "",
          "type": "uint256"
        }
      ],
      "stateMutability": "view",
      "type": "function"
    },
    {
      "inputs": [
        {
          "internalType": "address",
          "name": "to",
          "type": "address"
        },
        {
          "internalType": "uint256",
          "name": "value",
          "type": "uint256"
        }
      ],
      "name": "transfer",
      "outputs": [
        {
          "internalType": "bool",
          "name": "",
          "type": "bool"
        }
      ],
      "stateMutability": "nonpayable",
      "type": "function"
    },
    {
      "inputs": [
        {
          "internalType": "address",
          "name": "from",
          "type": "address"
        },
        {
          "internalType": "address",
          "name": "to",
          "type": "address"
        },
        {
          "internalType": "uint256",
          "name": "value",
          "type": "uint256"
        }
      ],
      "name": "transferFrom",
      "outputs": [
        {
          "internalType": "bool",
          "name": "",
          "type": "bool"
        }
      ],
      "stateMutability": "nonpayable",
      "type": "function"
    },
    {
      "inputs": [],
      "name": "unpause",
      "outputs": [],
      "stateMutability": "nonpayable",
      "type": "function"
    }
  ],
  "bytecode": "0x610180604052348015610010575f5ffd5b50604051611ed3380380611ed383398101604081905261002f91610624565b6040805180820190915260018152603160f81b602082015286908190838289600361005a8382610738565b5060046100678282610738565b505050805f036100915760405163392e1e2760e01b81525f60048201526024015b60405180910390fd5b60805261009f826006610248565b610140526100ae816007610248565b61016052815160208084019190912061010052815190820120610120524660c05261013c6101005161012051604080517f8b73c3c69bb8fe3d512ecc4cf759cc79239f7b179b0ffacaa9a75d522b39400f60208201529081019290925260608201524660808201523060a08201525f9060c00160405160208183030381529060405280519060200120905090565b60a05250503060e052506001600160a01b038416158061016357506001600160a01b038316155b156101815760405163d92e233d60e01b815260040160405180910390fd5b805f036101a15760405163195bab4d60e31b815260040160405180910390fd5b808211156101cc5760405163279e7e1560e21b81526004810183905260248101829052604401610088565b6101d65f8561027a565b506102017f9f2df0fed2c77648de5860a4cc508cd0818c85b8b8a1ab4ceeef8d981c8956a68561027a565b5061022c7f65d7a28e3265b37a6474929f336521b332c1681b933f6cb9f3376673440d862a8561027a565b50811561023d5761023d8383610325565b505050505050610869565b5f6020835110156102635761025c8361035d565b9050610274565b8161026e8482610738565b5060ff90505b92915050565b5f8281526009602090815260408083206001600160a01b038516845290915281205460ff1661031e575f8381526009602090815260408083206001600160a01b03861684529091529020805460ff191660011790556102d63390565b6001600160a01b0316826001600160a01b0316847f2f8788117e7eff1d82e926ec794901d17c78024a50270940304540a733656f0d60405160405180910390a4506001610274565b505f610274565b6001600160a01b03821661034e5760405163ec442f0560e01b81525f6004820152602401610088565b6103595f838361039a565b5050565b5f5f829050601f81511115610387578260405163305a27a960e01b815260040161008891906107f2565b805161039282610827565b179392505050565b6103a58383836103aa565b505050565b6103b26103bd565b6103a58383836103e3565b60055460ff16156103e15760405163d93c066560e01b815260040160405180910390fd5b565b6103ee838383610446565b6001600160a01b0383166103a5575f61040660805190565b90505f61041260025490565b90508181111561043f5760405163279e7e1560e21b81526004810182905260248101839052604401610088565b5050505050565b6001600160a01b038316610470578060025f828254610465919061084a565b909155506104e09050565b6001600160a01b0383165f90815260208190526040902054818110156104c25760405163391434e360e21b81526001600160a01b03851660048201526024810182905260448101839052606401610088565b6001600160a01b0384165f9081526020819052604090209082900390555b6001600160a01b0382166104fc5760028054829003905561051a565b6001600160a01b0382165f9081526020819052604090208054820190555b816001600160a01b0316836001600160a01b03167fddf252ad1be2c89b69c2b068fc378daa952ba7f163c4a11628f55a4df523b3ef8360405161055f91815260200190565b60405180910390a3505050565b634e487b7160e01b5f52604160045260245ffd5b5f82601f83011261058f575f5ffd5b81516001600160401b038111156105a8576105a861056c565b604051601f8201601f19908116603f011681016001600160401b03811182821017156105d6576105d661056c565b6040528181528382016020018510156105ed575f5ffd5b8160208501602083015e5f918101602001919091529392505050565b80516001600160a01b038116811461061f575f5ffd5b919050565b5f5f5f5f5f5f60c08789031215610639575f5ffd5b86516001600160401b0381111561064e575f5ffd5b61065a89828a01610580565b602089015190975090506001600160401b03811115610677575f5ffd5b61068389828a01610580565b95505061069260408801610609565b93506106a060608801610609565b608088015160a090980151969995985093969395939492505050565b600181811c908216806106d057607f821691505b6020821081036106ee57634e487b7160e01b5f52602260045260245ffd5b50919050565b601f8211156103a557805f5260205f20601f840160051c810160208510156107195750805b601f840160051c820191505b8181101561043f575f8155600101610725565b81516001600160401b038111156107515761075161056c565b6107658161075f84546106bc565b846106f4565b6020601f821160018114610797575f83156107805750848201515b5f19600385901b1c1916600184901b17845561043f565b5f84815260208120601f198516915b828110156107c657878501518255602094850194600190920191016107a6565b50848210156107e357868401515f19600387901b60f8161c191681555b50505050600190811b01905550565b602081525f82518060208401528060208501604085015e5f604082850101526040601f19601f83011684010191505092915050565b805160208083015191908110156106ee575f1960209190910360031b1b16919050565b8082018082111561027457634e487b7160e01b5f52601160045260245ffd5b60805160a05160c05160e051610100516101205161014051610160516116086108cb5f395f610ce401525f610cb701525f610afe01525f610ad601525f610a3101525f610a5b01525f610a8501525f8181610287015261115801526116085ff3fe608060405234801561000f575f5ffd5b50600436106101c6575f3560e01c80635c975abb116100fe57806395d89b411161009e578063d53913931161006e578063d5391393146103b8578063d547741f146103df578063dd62ed3e146103f2578063e63ab1e91461042a575f5ffd5b806395d89b4114610383578063a217fddf1461038b578063a9059cbb14610392578063d505accf146103a5575f5ffd5b80637ecebe00116100d95780637ecebe001461033a5780638456cb591461034d57806384b0196e1461035557806391d1485414610370575f5ffd5b80635c975abb146102f457806370a08231146102ff57806379cc679014610327575f5ffd5b8063313ce5671161016957806336568abe1161014457806336568abe146102b35780633f4ba83a146102c657806340c10f19146102ce57806342966c68146102e1575f5ffd5b8063313ce56714610276578063355274ea146102855780633644e515146102ab575f5ffd5b806318160ddd116101a457806318160ddd1461021a57806323b872dd1461022c578063248a9ca31461023f5780632f2ff15d14610261575f5ffd5b806301ffc9a7146101ca57806306fdde03146101f2578063095ea7b314610207575b5f5ffd5b6101dd6101d83660046112f7565b610451565b60405190151581526020015b60405180910390f35b6101fa610487565b6040516101e99190611353565b6101dd610215366004611380565b610517565b6002545b6040519081526020016101e9565b6101dd61023a3660046113a8565b61052e565b61021e61024d3660046113e2565b5f9081526009602052604090206001015490565b61027461026f3660046113f9565b610551565b005b604051601281526020016101e9565b7f000000000000000000000000000000000000000000000000000000000000000061021e565b61021e61057b565b6102746102c13660046113f9565b610589565b6102746105c1565b6102746102dc366004611380565b6105f6565b6102746102ef3660046113e2565b610651565b60055460ff166101dd565b61021e61030d366004611423565b6001600160a01b03165f9081526020819052604090205490565b610274610335366004611380565b61065b565b61021e610348366004611423565b610674565b610274610691565b61035d6106c3565b6040516101e9979695949392919061143c565b6101dd61037e3660046113f9565b610705565b6101fa61072f565b61021e5f81565b6101dd6103a0366004611380565b61073e565b6102746103b33660046114d2565b61074b565b61021e7f9f2df0fed2c77648de5860a4cc508cd0818c85b8b8a1ab4ceeef8d981c8956a681565b6102746103ed3660046113f9565b610886565b61021e61040036600461153f565b6001600160a01b039182165f90815260016020908152604080832093909416825291909152205490565b61021e7f65d7a28e3265b37a6474929f336521b332c1681b933f6cb9f3376673440d862a81565b5f6001600160e01b03198216637965db0b60e01b148061048157506301ffc9a760e01b6001600160e01b03198316145b92915050565b60606003805461049690611567565b80601f01602080910402602001604051908101604052809291908181526020018280546104c290611567565b801561050d5780601f106104e45761010080835404028352916020019161050d565b820191905f5260205f20905b8154815290600101906020018083116104f057829003601f168201915b5050505050905090565b5f336105248185856108aa565b5060019392505050565b5f3361053b8582856108b7565b61054685858561092d565b506001949350505050565b5f8281526009602052604090206001015461056b8161098a565b6105758383610994565b50505050565b5f610584610a25565b905090565b6001600160a01b03811633146105b25760405163334bd91960e11b815260040160405180910390fd5b6105bc8282610b4e565b505050565b7f65d7a28e3265b37a6474929f336521b332c1681b933f6cb9f3376673440d862a6105eb8161098a565b6105f3610bb9565b50565b7f9f2df0fed2c77648de5860a4cc508cd0818c85b8b8a1ab4ceeef8d981c8956a66106208161098a565b6001600160a01b0383166106475760405163d92e233d60e01b815260040160405180910390fd5b6105bc8383610c0b565b6105f33382610c3f565b6106668233836108b7565b6106708282610c3f565b5050565b6001600160a01b0381165f90815260086020526040812054610481565b7f65d7a28e3265b37a6474929f336521b332c1681b933f6cb9f3376673440d862a6106bb8161098a565b6105f3610c73565b5f6060805f5f5f60606106d4610cb0565b6106dc610cdd565b604080515f80825260208201909252600f60f81b9b939a50919850469750309650945092509050565b5f9182526009602090815260408084206001600160a01b0393909316845291905290205460ff1690565b60606004805461049690611567565b5f3361052481858561092d565b834211156107745760405163313c898160e11b8152600481018590526024015b60405180910390fd5b5f7f6e71edae12b1b97f4d1f60370fef10105fa2faae0126114a169c64845d6126c98888886107bf8c6001600160a01b03165f90815260086020526040902080546001810190915590565b6040805160208101969096526001600160a01b0394851690860152929091166060840152608083015260a082015260c0810186905260e0016040516020818303038152906040528051906020012090505f61081982610d0a565b90505f61082882878787610d36565b9050896001600160a01b0316816001600160a01b03161461086f576040516325c0072360e11b81526001600160a01b0380831660048301528b16602482015260440161076b565b61087a8a8a8a6108aa565b50505050505050505050565b5f828152600960205260409020600101546108a08161098a565b6105758383610b4e565b6105bc8383836001610d62565b6001600160a01b038381165f908152600160209081526040808320938616835292905220545f19811015610575578181101561091f57604051637dc7a0d960e11b81526001600160a01b0384166004820152602481018290526044810183905260640161076b565b61057584848484035f610d62565b6001600160a01b03831661095657604051634b637e8f60e11b81525f600482015260240161076b565b6001600160a01b03821661097f5760405163ec442f0560e01b81525f600482015260240161076b565b6105bc838383610e34565b6105f38133610e3f565b5f61099f8383610705565b610a1e575f8381526009602090815260408083206001600160a01b03861684529091529020805460ff191660011790556109d63390565b6001600160a01b0316826001600160a01b0316847f2f8788117e7eff1d82e926ec794901d17c78024a50270940304540a733656f0d60405160405180910390a4506001610481565b505f610481565b5f306001600160a01b037f000000000000000000000000000000000000000000000000000000000000000016148015610a7d57507f000000000000000000000000000000000000000000000000000000000000000046145b15610aa757507f000000000000000000000000000000000000000000000000000000000000000090565b610584604080517f8b73c3c69bb8fe3d512ecc4cf759cc79239f7b179b0ffacaa9a75d522b39400f60208201527f0000000000000000000000000000000000000000000000000000000000000000918101919091527f000000000000000000000000000000000000000000000000000000000000000060608201524660808201523060a08201525f9060c00160405160208183030381529060405280519060200120905090565b5f610b598383610705565b15610a1e575f8381526009602090815260408083206001600160a01b0386168085529252808320805460ff1916905551339286917ff6391f5c32d9c69d2a47ea670b442974b53935d1edc7fd64eb21e047a839171b9190a4506001610481565b610bc1610e78565b6005805460ff191690557f5db9ee0a495bf2e6ff9c91a7834c1ba4fdd244a5e8aa4e537bd38aeae4b073aa335b6040516001600160a01b03909116815260200160405180910390a1565b6001600160a01b038216610c345760405163ec442f0560e01b81525f600482015260240161076b565b6106705f8383610e34565b6001600160a01b038216610c6857604051634b637e8f60e11b81525f600482015260240161076b565b610670825f83610e34565b610c7b610e9d565b6005805460ff191660011790557f62e78cea01bee320cd4e420270b5ea74000d11b0c9f74754ebdbfc544b05a258610bee3390565b60606105847f00000000000000000000000000000000000000000000000000000000000000006006610ec1565b60606105847f00000000000000000000000000000000000000000000000000000000000000006007610ec1565b5f610481610d16610a25565b8360405161190160f01b8152600281019290925260228201526042902090565b5f5f5f5f610d4688888888610f6a565b925092509250610d568282611032565b50909695505050505050565b6001600160a01b038416610d8b5760405163e602df0560e01b81525f600482015260240161076b565b6001600160a01b038316610db457604051634a1406b160e11b81525f600482015260240161076b565b6001600160a01b038085165f908152600160209081526040808320938716835292905220829055801561057557826001600160a01b0316846001600160a01b03167f8c5be1e5ebec7d5bd14f71427d1e84f3dd0314c0f7b2291e5b200ac8c7c3b92584604051610e2691815260200190565b60405180910390a350505050565b6105bc8383836110ea565b610e498282610705565b6106705760405163e2517d3f60e01b81526001600160a01b03821660048201526024810183905260440161076b565b60055460ff16610e9b57604051638dfc202b60e01b815260040160405180910390fd5b565b60055460ff1615610e9b5760405163d93c066560e01b815260040160405180910390fd5b606060ff8314610edb57610ed4836110fd565b9050610481565b818054610ee790611567565b80601f0160208091040260200160405190810160405280929190818152602001828054610f1390611567565b8015610f5e5780601f10610f3557610100808354040283529160200191610f5e565b820191905f5260205f20905b815481529060010190602001808311610f4157829003601f168201915b50505050509050610481565b5f80807f7fffffffffffffffffffffffffffffff5d576e7357a4501ddfe92f46681b20a0841115610fa357505f91506003905082611028565b604080515f808252602082018084528a905260ff891692820192909252606081018790526080810186905260019060a0016020604051602081039080840390855afa158015610ff4573d5f5f3e3d5ffd5b5050604051601f1901519150506001600160a01b03811661101f57505f925060019150829050611028565b92505f91508190505b9450945094915050565b5f8260038111156110455761104561159f565b0361104e575050565b60018260038111156110625761106261159f565b036110805760405163f645eedf60e01b815260040160405180910390fd5b60028260038111156110945761109461159f565b036110b55760405163fce698f760e01b81526004810182905260240161076b565b60038260038111156110c9576110c961159f565b03610670576040516335e2f38360e21b81526004810182905260240161076b565b6110f2610e9d565b6105bc83838361113a565b60605f611109836111aa565b6040805160208082528183019092529192505f91906020820181803683375050509182525060208101929092525090565b6111458383836111d1565b6001600160a01b0383166105bc576002547f000000000000000000000000000000000000000000000000000000000000000090818111156111a35760405163279e7e1560e21b8152600481018290526024810183905260440161076b565b5050505050565b5f60ff8216601f81111561048157604051632cd44ac360e21b815260040160405180910390fd5b6001600160a01b0383166111fb578060025f8282546111f091906115b3565b9091555061126b9050565b6001600160a01b0383165f908152602081905260409020548181101561124d5760405163391434e360e21b81526001600160a01b0385166004820152602481018290526044810183905260640161076b565b6001600160a01b0384165f9081526020819052604090209082900390555b6001600160a01b038216611287576002805482900390556112a5565b6001600160a01b0382165f9081526020819052604090208054820190555b816001600160a01b0316836001600160a01b03167fddf252ad1be2c89b69c2b068fc378daa952ba7f163c4a11628f55a4df523b3ef836040516112ea91815260200190565b60405180910390a3505050565b5f60208284031215611307575f5ffd5b81356001600160e01b03198116811461131e575f5ffd5b9392505050565b5f81518084528060208401602086015e5f602082860101526020601f19601f83011685010191505092915050565b602081525f61131e6020830184611325565b80356001600160a01b038116811461137b575f5ffd5b919050565b5f5f60408385031215611391575f5ffd5b61139a83611365565b946020939093013593505050565b5f5f5f606084860312156113ba575f5ffd5b6113c384611365565b92506113d160208501611365565b929592945050506040919091013590565b5f602082840312156113f2575f5ffd5b5035919050565b5f5f6040838503121561140a575f5ffd5b8235915061141a60208401611365565b90509250929050565b5f60208284031215611433575f5ffd5b61131e82611365565b60ff60f81b8816815260e060208201525f61145a60e0830189611325565b828103604084015261146c8189611325565b606084018890526001600160a01b038716608085015260a0840186905283810360c0850152845180825260208087019350909101905f5b818110156114c15783518352602093840193909201916001016114a3565b50909b9a5050505050505050505050565b5f5f5f5f5f5f5f60e0888a0312156114e8575f5ffd5b6114f188611365565b96506114ff60208901611365565b95506040880135945060608801359350608088013560ff81168114611522575f5ffd5b9699959850939692959460a0840135945060c09093013592915050565b5f5f60408385031215611550575f5ffd5b61155983611365565b915061141a60208401611365565b600181811c9082168061157b57607f821691505b60208210810361159957634e487b7160e01b5f52602260045260245ffd5b50919050565b634e487b7160e01b5f52602160045260245ffd5b8082018082111561048157634e487b7160e01b5f52601160045260245ffdfea2646970667358221220ca9dd5aa4c96b408c7f3be2555ff4e179c8b1ef927f4b0dc1aa7fe994d4ffd6764736f6c634300081c0033",
  "linkReferences": {},
  "deployedLinkReferences": {}
}